{
  "contractName": "Bank",
  "abi": [
    {
      "inputs": [],
      "payable": false,
      "stateMutability": "nonpayable",
      "type": "constructor"
    },
    {
      "anonymous": false,
      "inputs": [
        {
          "indexed": false,
          "name": "to",
          "type": "address"
        },
        {
          "indexed": false,
          "name": "_from",
          "type": "address"
        },
        {
          "indexed": false,
          "name": "_amount",
          "type": "uint256"
        },
        {
          "indexed": false,
          "name": "_transactionID",
          "type": "uint256"
        }
      ],
      "name": "depositAmount",
      "type": "event"
    },
    {
      "anonymous": false,
      "inputs": [
        {
          "indexed": false,
          "name": "to",
          "type": "address"
        },
        {
          "indexed": false,
          "name": "_from",
          "type": "address"
        },
        {
          "indexed": false,
          "name": "_amount",
          "type": "uint256"
        },
        {
          "indexed": false,
          "name": "_transactionID",
          "type": "uint256"
        }
      ],
      "name": "withDrawAmount",
      "type": "event"
    },
    {
      "anonymous": false,
      "inputs": [
        {
          "indexed": false,
          "name": "to",
          "type": "address"
        },
        {
          "indexed": false,
          "name": "_from",
          "type": "address"
        },
        {
          "indexed": false,
          "name": "_amount",
          "type": "uint256"
        },
        {
          "indexed": false,
          "name": "_transactionID",
          "type": "uint256"
        }
      ],
      "name": "transferAmount",
      "type": "event"
    },
    {
      "constant": false,
      "inputs": [
        {
          "name": "_amount",
          "type": "uint256"
        }
      ],
      "name": "deposit",
      "outputs": [],
      "payable": true,
      "stateMutability": "payable",
      "type": "function"
    },
    {
      "constant": false,
      "inputs": [
        {
          "name": "_to",
          "type": "address"
        },
        {
          "name": "_amount",
          "type": "uint256"
        }
      ],
      "name": "transfer",
      "outputs": [],
      "payable": true,
      "stateMutability": "payable",
      "type": "function"
    },
    {
      "constant": false,
      "inputs": [
        {
          "name": "_amount",
          "type": "uint256"
        }
      ],
      "name": "withdraw",
      "outputs": [],
      "payable": false,
      "stateMutability": "nonpayable",
      "type": "function"
    },
    {
      "constant": true,
      "inputs": [],
      "name": "getBalance",
      "outputs": [
        {
          "name": "",
          "type": "uint256"
        }
      ],
      "payable": false,
      "stateMutability": "view",
      "type": "function"
    },
    {
      "constant": true,
      "inputs": [
        {
          "name": "_owner",
          "type": "address"
        }
      ],
      "name": "getAccountBal",
      "outputs": [
        {
          "name": "",
          "type": "uint256"
        }
      ],
      "payable": false,
      "stateMutability": "view",
      "type": "function"
    },
    {
      "constant": true,
      "inputs": [],
      "name": "getOwner",
      "outputs": [
        {
          "name": "",
          "type": "address"
        }
      ],
      "payable": false,
      "stateMutability": "view",
      "type": "function"
    },
    {
      "constant": true,
      "inputs": [],
      "name": "getTransactionID",
      "outputs": [
        {
          "name": "",
          "type": "uint256[]"
        }
      ],
      "payable": false,
      "stateMutability": "view",
      "type": "function"
    }
  ],
  "bytecode": "0x608060405234801561001057600080fd5b5033600460006101000a81548173ffffffffffffffffffffffffffffffffffffffff021916908373ffffffffffffffffffffffffffffffffffffffff160217905550610d2c806100616000396000f300608060405260043610610083576000357c0100000000000000000000000000000000000000000000000000000000900463ffffffff16806312065fe0146100885780632e1a7d4d146100b3578063665ded64146100e0578063893d20e814610137578063a9059cbb1461018e578063ac455d87146101ce578063b6b55f251461023a575b600080fd5b34801561009457600080fd5b5061009d61025a565b6040518082815260200191505060405180910390f35b3480156100bf57600080fd5b506100de600480360381019080803590602001909291905050506102a1565b005b3480156100ec57600080fd5b50610121600480360381019080803573ffffffffffffffffffffffffffffffffffffffff1690602001909291905050506105e8565b6040518082815260200191505060405180910390f35b34801561014357600080fd5b5061014c610631565b604051808273ffffffffffffffffffffffffffffffffffffffff1673ffffffffffffffffffffffffffffffffffffffff16815260200191505060405180910390f35b6101cc600480360381019080803573ffffffffffffffffffffffffffffffffffffffff1690602001909291908035906020019092919050505061065b565b005b3480156101da57600080fd5b506101e36109f0565b6040518080602001828103825283818151815260200191508051906020019060200280838360005b8381101561022657808201518184015260208101905061020b565b505050509050019250505060405180910390f35b61025860048036038101908080359060200190929190505050610a48565b005b6000600360003373ffffffffffffffffffffffffffffffffffffffff1673ffffffffffffffffffffffffffffffffffffffff16815260200190815260200160002054905090565b60006102ab610cb2565b600360003373ffffffffffffffffffffffffffffffffffffffff1673ffffffffffffffffffffffffffffffffffffffff168152602001908152602001600020548311151515610388576040517f08c379a00000000000000000000000000000000000000000000000000000000081526004018080602001828103825260228152602001807f416d6f756e742073686f756c64206265206c657373207468616e2062616c616e81526020017f636500000000000000000000000000000000000000000000000000000000000081525060400191505060405180910390fd5b82600360003373ffffffffffffffffffffffffffffffffffffffff1673ffffffffffffffffffffffffffffffffffffffff168152602001908152602001600020600082825403925050819055506002600081548092919060010191905055915033816000019073ffffffffffffffffffffffffffffffffffffffff16908173ffffffffffffffffffffffffffffffffffffffff168152505033816020019073ffffffffffffffffffffffffffffffffffffffff16908173ffffffffffffffffffffffffffffffffffffffff1681525050828160400181815250508060008084815260200190815260200160002060008201518160000160006101000a81548173ffffffffffffffffffffffffffffffffffffffff021916908373ffffffffffffffffffffffffffffffffffffffff16021790555060208201518160010160006101000a81548173ffffffffffffffffffffffffffffffffffffffff021916908373ffffffffffffffffffffffffffffffffffffffff1602179055506040820151816002015590505060018290806001815401808255809150509060018203906000526020600020016000909192909190915055507fa02d784955cac5ceeb18d282207f59dcdc6ff044c68f87c879c02e373129f77a33338585604051808573ffffffffffffffffffffffffffffffffffffffff1673ffffffffffffffffffffffffffffffffffffffff1681526020018473ffffffffffffffffffffffffffffffffffffffff1673ffffffffffffffffffffffffffffffffffffffff16815260200183815260200182815260200194505050505060405180910390a1505050565b6000600360008373ffffffffffffffffffffffffffffffffffffffff1673ffffffffffffffffffffffffffffffffffffffff168152602001908152602001600020549050919050565b6000600460009054906101000a900473ffffffffffffffffffffffffffffffffffffffff16905090565b6000610665610cb2565b600360003373ffffffffffffffffffffffffffffffffffffffff1673ffffffffffffffffffffffffffffffffffffffff168152602001908152602001600020548311151515610742576040517f08c379a00000000000000000000000000000000000000000000000000000000081526004018080602001828103825260228152602001807f416d6f756e742073686f756c64206265206c657373207468616e2062616c616e81526020017f636500000000000000000000000000000000000000000000000000000000000081525060400191505060405180910390fd5b6002600081548092919060010191905055915082600360003373ffffffffffffffffffffffffffffffffffffffff1673ffffffffffffffffffffffffffffffffffffffff1681526020019081526020016000206000828254039250508190555082600360008673ffffffffffffffffffffffffffffffffffffffff1673ffffffffffffffffffffffffffffffffffffffff1681526020019081526020016000206000828254019250508190555083816000019073ffffffffffffffffffffffffffffffffffffffff16908173ffffffffffffffffffffffffffffffffffffffff168152505033816020019073ffffffffffffffffffffffffffffffffffffffff16908173ffffffffffffffffffffffffffffffffffffffff1681525050828160400181815250508060008084815260200190815260200160002060008201518160000160006101000a81548173ffffffffffffffffffffffffffffffffffffffff021916908373ffffffffffffffffffffffffffffffffffffffff16021790555060208201518160010160006101000a81548173ffffffffffffffffffffffffffffffffffffffff021916908373ffffffffffffffffffffffffffffffffffffffff1602179055506040820151816002015590505060018290806001815401808255809150509060018203906000526020600020016000909192909190915055507fd72eb8d863518e92c729a8cb275ccf7fe2a68cfc4ea05ba3293fd30867272e5533338585604051808573ffffffffffffffffffffffffffffffffffffffff1673ffffffffffffffffffffffffffffffffffffffff1681526020018473ffffffffffffffffffffffffffffffffffffffff1673ffffffffffffffffffffffffffffffffffffffff16815260200183815260200182815260200194505050505060405180910390a150505050565b60606001805480602002602001604051908101604052809291908181526020018280548015610a3e57602002820191906000526020600020905b815481526020019060010190808311610a2a575b5050505050905090565b6000610a52610cb2565b82600360003373ffffffffffffffffffffffffffffffffffffffff1673ffffffffffffffffffffffffffffffffffffffff168152602001908152602001600020600082825401925050819055506002600081548092919060010191905055915033816000019073ffffffffffffffffffffffffffffffffffffffff16908173ffffffffffffffffffffffffffffffffffffffff168152505033816020019073ffffffffffffffffffffffffffffffffffffffff16908173ffffffffffffffffffffffffffffffffffffffff1681525050828160400181815250508060008084815260200190815260200160002060008201518160000160006101000a81548173ffffffffffffffffffffffffffffffffffffffff021916908373ffffffffffffffffffffffffffffffffffffffff16021790555060208201518160010160006101000a81548173ffffffffffffffffffffffffffffffffffffffff021916908373ffffffffffffffffffffffffffffffffffffffff1602179055506040820151816002015590505060018290806001815401808255809150509060018203906000526020600020016000909192909190915055507fdf02dbaba20f0684302a7ddcbcc747aebf0da35033e5c9caf1e3818d8ec3f4c533338585604051808573ffffffffffffffffffffffffffffffffffffffff1673ffffffffffffffffffffffffffffffffffffffff1681526020018473ffffffffffffffffffffffffffffffffffffffff1673ffffffffffffffffffffffffffffffffffffffff16815260200183815260200182815260200194505050505060405180910390a1505050565b606060405190810160405280600073ffffffffffffffffffffffffffffffffffffffff168152602001600073ffffffffffffffffffffffffffffffffffffffff1681526020016000815250905600a165627a7a72305820131de2c7259070b924817372773bc7e22787368af4d5054340e4e60539f703460029",
  "source": "pragma solidity ^0.4.24;\n\ncontract Bank {\n\n    struct Transaction{\n        address to;\n        address from;\n        uint amount;\n    }\n\n    mapping(uint => Transaction) private tranactionID;\n    uint[] private _Transactions;\n    uint TransactionCount;\n\n    event depositAmount(address to,address _from,uint _amount,uint _transactionID);\n    event withDrawAmount(address to,address _from,uint _amount,uint _transactionID);\n    event transferAmount(address to,address _from,uint _amount,uint _transactionID);\n\n    mapping(address => uint256) private balanceOf;   // balances, indexed by addresses\n    address private owner;\n\n    constructor() public{\n        owner = msg.sender;\n    }\n\n    function deposit(uint256 _amount) public payable {\n        //require(msg.value == amount);\n        balanceOf[msg.sender] += _amount;     // adjust the account's balance\n        \n        uint counter = TransactionCount++;\n        Transaction memory transactions;\n        transactions.to = msg.sender;\n        transactions.from = msg.sender;\n        transactions.amount = _amount;\n        tranactionID[counter] = transactions;\n        _Transactions.push(counter);\n\n        //event will be fire from here\n        emit depositAmount(msg.sender,msg.sender,_amount,counter);\n        \n    }\n\n    function transfer(address _to,uint256 _amount) public payable{\n        require(_amount <= balanceOf[msg.sender],\"Amount should be less than balance\");\n\n        uint counter = TransactionCount++;\n        balanceOf[msg.sender] -= _amount;\n        balanceOf[_to] += _amount;        \n        Transaction memory transactions;\n        transactions.to = _to;\n        transactions.from = msg.sender;\n        transactions.amount = _amount;\n        tranactionID[counter] = transactions;\n        _Transactions.push(counter);\n\n        emit withDrawAmount(msg.sender,msg.sender,_amount,counter);\n    }\n\n    function withdraw(uint256 _amount) public {\n        require(_amount <= balanceOf[msg.sender],\"Amount should be less than balance\");\n        balanceOf[msg.sender] -= _amount;\n        // if(!msg.sender.send(amount)){\n        //     balanceOf[msg.sender] += amount;\n        // }else{\n        //     //event will be fired from here\n        // } \n        uint counter = TransactionCount++;\n\n        Transaction memory transactions;\n        transactions.to = msg.sender;\n        transactions.from = msg.sender;\n        transactions.amount = _amount;\n        tranactionID[counter] = transactions;\n        _Transactions.push(counter);\n\n        emit transferAmount(msg.sender,msg.sender,_amount,counter);       \n    }\n\n    function getBalance() public view returns (uint){\n        return balanceOf[msg.sender];\n    }\n\n    function getAccountBal(address _owner)public view returns (uint){\n        return balanceOf[_owner];\n    }\n\n    function getOwner() public view returns(address){\n        return owner;\n    }\n\n    function getTransactionID()public view returns(uint[]){\n        return _Transactions;\n    }\n}",
  "sourcePath": "/home/sahil/Documents/AdvanceJava/TrialProject/Bank/contracts/Bank.sol",
  "compiler": {
    "name": "solc",
    "version": "0.4.24+commit.e67f0147.Emscripten.clang"
  },
  "schemaVersion": "2.0.1",
  "updatedAt": "2018-11-08T07:49:02.632Z"
}