{
  "contractName": "MultiSigWallet",
  "abi": [
    {
      "inputs": [],
      "payable": false,
      "stateMutability": "nonpayable",
      "type": "constructor"
    },
    {
      "anonymous": false,
      "inputs": [
        {
          "indexed": false,
          "name": "from",
          "type": "address"
        },
        {
          "indexed": false,
          "name": "amount",
          "type": "uint256"
        }
      ],
      "name": "DepositFunds",
      "type": "event"
    },
    {
      "anonymous": false,
      "inputs": [
        {
          "indexed": false,
          "name": "from",
          "type": "address"
        },
        {
          "indexed": false,
          "name": "to",
          "type": "address"
        },
        {
          "indexed": false,
          "name": "amount",
          "type": "uint256"
        },
        {
          "indexed": false,
          "name": "transactionId",
          "type": "uint256"
        }
      ],
      "name": "TransactionCreated",
      "type": "event"
    },
    {
      "anonymous": false,
      "inputs": [
        {
          "indexed": false,
          "name": "from",
          "type": "address"
        },
        {
          "indexed": false,
          "name": "to",
          "type": "address"
        },
        {
          "indexed": false,
          "name": "amount",
          "type": "uint256"
        },
        {
          "indexed": false,
          "name": "transactionId",
          "type": "uint256"
        }
      ],
      "name": "TransactionCompleted",
      "type": "event"
    },
    {
      "anonymous": false,
      "inputs": [
        {
          "indexed": false,
          "name": "by",
          "type": "address"
        },
        {
          "indexed": false,
          "name": "transactionId",
          "type": "uint256"
        }
      ],
      "name": "TransactionSigned",
      "type": "event"
    },
    {
      "constant": false,
      "inputs": [
        {
          "name": "owner",
          "type": "address"
        }
      ],
      "name": "addOwner",
      "outputs": [],
      "payable": false,
      "stateMutability": "nonpayable",
      "type": "function"
    },
    {
      "constant": false,
      "inputs": [
        {
          "name": "owner",
          "type": "address"
        }
      ],
      "name": "removeOwner",
      "outputs": [],
      "payable": false,
      "stateMutability": "nonpayable",
      "type": "function"
    },
    {
      "constant": false,
      "inputs": [],
      "name": "depositFund",
      "outputs": [],
      "payable": true,
      "stateMutability": "payable",
      "type": "function"
    },
    {
      "constant": false,
      "inputs": [
        {
          "name": "amount",
          "type": "uint256"
        }
      ],
      "name": "withdraw",
      "outputs": [],
      "payable": false,
      "stateMutability": "nonpayable",
      "type": "function"
    },
    {
      "constant": false,
      "inputs": [
        {
          "name": "to",
          "type": "address"
        },
        {
          "name": "amount",
          "type": "uint256"
        }
      ],
      "name": "transferTo",
      "outputs": [],
      "payable": false,
      "stateMutability": "nonpayable",
      "type": "function"
    },
    {
      "constant": true,
      "inputs": [],
      "name": "getPendingTransactions",
      "outputs": [
        {
          "name": "",
          "type": "uint256[]"
        }
      ],
      "payable": false,
      "stateMutability": "view",
      "type": "function"
    },
    {
      "constant": false,
      "inputs": [
        {
          "name": "transactionId",
          "type": "uint256"
        }
      ],
      "name": "signTransaction",
      "outputs": [],
      "payable": false,
      "stateMutability": "nonpayable",
      "type": "function"
    },
    {
      "constant": false,
      "inputs": [
        {
          "name": "transactionId",
          "type": "uint256"
        }
      ],
      "name": "deleteTransaction",
      "outputs": [],
      "payable": false,
      "stateMutability": "nonpayable",
      "type": "function"
    },
    {
      "constant": true,
      "inputs": [],
      "name": "walletBalance",
      "outputs": [
        {
          "name": "",
          "type": "uint256"
        }
      ],
      "payable": false,
      "stateMutability": "view",
      "type": "function"
    }
  ],
  "bytecode": "0x608060405234801561001057600080fd5b50336000806101000a81548173ffffffffffffffffffffffffffffffffffffffff021916908373ffffffffffffffffffffffffffffffffffffffff16021790555061103f806100606000396000f300608060405260043610610098576000357c0100000000000000000000000000000000000000000000000000000000900463ffffffff168062e9c0061461009d578063173825d9146100ca5780632ccb1b301461010d5780632e1a7d4d1461015a5780635d9ec210146101875780637065cb48146101b45780638d0d8cb6146101f7578063cd0a314b14610201578063d11db83f1461022c575b600080fd5b3480156100a957600080fd5b506100c860048036038101908080359060200190929190505050610298565b005b3480156100d657600080fd5b5061010b600480360381019080803573ffffffffffffffffffffffffffffffffffffffff1690602001909291905050506104a4565b005b34801561011957600080fd5b50610158600480360381019080803573ffffffffffffffffffffffffffffffffffffffff1690602001909291908035906020019092919050505061055b565b005b34801561016657600080fd5b5061018560048036038101908080359060200190929190505050610888565b005b34801561019357600080fd5b506101b260048036038101908080359060200190929190505050610895565b005b3480156101c057600080fd5b506101f5600480360381019080803573ffffffffffffffffffffffffffffffffffffffff169060200190929190505050610d1c565b005b6101ff610dd2565b005b34801561020d57600080fd5b50610216610e3f565b6040518082815260200191505060405180910390f35b34801561023857600080fd5b50610241610e5e565b6040518080602001828103825283818151815260200191508051906020019060200280838360005b83811015610284578082015181840152602081019050610269565b505050509050019250505060405180910390f35b6000806000809054906101000a900473ffffffffffffffffffffffffffffffffffffffff1673ffffffffffffffffffffffffffffffffffffffff163373ffffffffffffffffffffffffffffffffffffffff161480610344575060018060003373ffffffffffffffffffffffffffffffffffffffff1673ffffffffffffffffffffffffffffffffffffffff16815260200190815260200160002060009054906101000a900460ff1660ff16145b151561034f57600080fd5b60009150600090505b6004805490508110156103e4578160ff16600114156103b05760048181548110151561038057fe5b906000526020600020015460046001830381548110151561039d57fe5b90600052602060002001819055506103d7565b6004818154811015156103bf57fe5b90600052602060002001548314156103d657600191505b5b8080600101915050610358565b60046001600480549050038154811015156103fb57fe5b9060005260206000200160009055600480548091906001900361041e9190610f6a565b5060036000848152602001908152602001600020600080820160006101000a81549073ffffffffffffffffffffffffffffffffffffffff02191690556001820160006101000a81549073ffffffffffffffffffffffffffffffffffffffff021916905560028201600090556003820160006101000a81549060ff02191690555050505050565b6000809054906101000a900473ffffffffffffffffffffffffffffffffffffffff1673ffffffffffffffffffffffffffffffffffffffff163373ffffffffffffffffffffffffffffffffffffffff161415156104ff57600080fd5b6000600160008373ffffffffffffffffffffffffffffffffffffffff1673ffffffffffffffffffffffffffffffffffffffff16815260200190815260200160002060006101000a81548160ff021916908360ff16021790555050565b6000610565610f96565b6000809054906101000a900473ffffffffffffffffffffffffffffffffffffffff1673ffffffffffffffffffffffffffffffffffffffff163373ffffffffffffffffffffffffffffffffffffffff16148061060e575060018060003373ffffffffffffffffffffffffffffffffffffffff1673ffffffffffffffffffffffffffffffffffffffff16815260200190815260200160002060009054906101000a900460ff1660ff16145b151561061957600080fd5b823073ffffffffffffffffffffffffffffffffffffffff16311015151561063f57600080fd5b6002600081548092919060010191905055915033816000019073ffffffffffffffffffffffffffffffffffffffff16908173ffffffffffffffffffffffffffffffffffffffff168152505083816020019073ffffffffffffffffffffffffffffffffffffffff16908173ffffffffffffffffffffffffffffffffffffffff1681525050828160400181815250506000816060019060ff16908160ff1681525050806003600084815260200190815260200160002060008201518160000160006101000a81548173ffffffffffffffffffffffffffffffffffffffff021916908373ffffffffffffffffffffffffffffffffffffffff16021790555060208201518160010160006101000a81548173ffffffffffffffffffffffffffffffffffffffff021916908373ffffffffffffffffffffffffffffffffffffffff1602179055506040820151816002015560608201518160030160006101000a81548160ff021916908360ff16021790555090505060048290806001815401808255809150509060018203906000526020600020016000909192909190915055507f41d8c89c4a25824354aa1f198d80d06f2f93f903a2d180d1ea20429a4678c4a433858585604051808573ffffffffffffffffffffffffffffffffffffffff1673ffffffffffffffffffffffffffffffffffffffff1681526020018473ffffffffffffffffffffffffffffffffffffffff1673ffffffffffffffffffffffffffffffffffffffff16815260200183815260200182815260200194505050505060405180910390a150505050565b610892338261055b565b50565b60008060009054906101000a900473ffffffffffffffffffffffffffffffffffffffff1673ffffffffffffffffffffffffffffffffffffffff163373ffffffffffffffffffffffffffffffffffffffff161480610940575060018060003373ffffffffffffffffffffffffffffffffffffffff1673ffffffffffffffffffffffffffffffffffffffff16815260200190815260200160002060009054906101000a900460ff1660ff16145b151561094b57600080fd5b6003600083815260200190815260200160002090508060000160009054906101000a900473ffffffffffffffffffffffffffffffffffffffff1673ffffffffffffffffffffffffffffffffffffffff166000141515156109aa57600080fd5b8060000160009054906101000a900473ffffffffffffffffffffffffffffffffffffffff1673ffffffffffffffffffffffffffffffffffffffff163373ffffffffffffffffffffffffffffffffffffffff1614151515610a0957600080fd5b60018160040160003373ffffffffffffffffffffffffffffffffffffffff1673ffffffffffffffffffffffffffffffffffffffff16815260200190815260200160002060009054906101000a900460ff1660ff1614151515610a6a57600080fd5b60018160040160003373ffffffffffffffffffffffffffffffffffffffff1673ffffffffffffffffffffffffffffffffffffffff16815260200190815260200160002060006101000a81548160ff021916908360ff16021790555080600301600081819054906101000a900460ff168092919060010191906101000a81548160ff021916908360ff160217905550507fac63e7e1dc16bccf900879686e74ca33eeb175b670e3aaa9d7e4ccf3781b7a7a3383604051808373ffffffffffffffffffffffffffffffffffffffff1673ffffffffffffffffffffffffffffffffffffffff1681526020018281526020019250505060405180910390a160028160030160009054906101000a900460ff1660ff16101515610d185780600201543073ffffffffffffffffffffffffffffffffffffffff163110151515610bac57600080fd5b8060010160009054906101000a900473ffffffffffffffffffffffffffffffffffffffff1673ffffffffffffffffffffffffffffffffffffffff166108fc82600201549081150290604051600060405180830381858888f19350505050158015610c1a573d6000803e3d6000fd5b507f394c4e679790fab24fd86614fd812811c9c835e4c475bdfc3d26fd0d6f7ca6fd8160000160009054906101000a900473ffffffffffffffffffffffffffffffffffffffff168260010160009054906101000a900473ffffffffffffffffffffffffffffffffffffffff16836002015485604051808573ffffffffffffffffffffffffffffffffffffffff1673ffffffffffffffffffffffffffffffffffffffff1681526020018473ffffffffffffffffffffffffffffffffffffffff1673ffffffffffffffffffffffffffffffffffffffff16815260200183815260200182815260200194505050505060405180910390a1610d1782610298565b5b5050565b6000809054906101000a900473ffffffffffffffffffffffffffffffffffffffff1673ffffffffffffffffffffffffffffffffffffffff163373ffffffffffffffffffffffffffffffffffffffff16141515610d7757600080fd5b60018060008373ffffffffffffffffffffffffffffffffffffffff1673ffffffffffffffffffffffffffffffffffffffff16815260200190815260200160002060006101000a81548160ff021916908360ff16021790555050565b7fd241e73300212f6df233a8e6d3146b88a9d4964e06621d54b5ff6afeba7b1b883334604051808373ffffffffffffffffffffffffffffffffffffffff1673ffffffffffffffffffffffffffffffffffffffff1681526020018281526020019250505060405180910390a1565b60003073ffffffffffffffffffffffffffffffffffffffff1631905090565b60606000809054906101000a900473ffffffffffffffffffffffffffffffffffffffff1673ffffffffffffffffffffffffffffffffffffffff163373ffffffffffffffffffffffffffffffffffffffff161480610f09575060018060003373ffffffffffffffffffffffffffffffffffffffff1673ffffffffffffffffffffffffffffffffffffffff16815260200190815260200160002060009054906101000a900460ff1660ff16145b1515610f1457600080fd5b6004805480602002602001604051908101604052809291908181526020018280548015610f6057602002820191906000526020600020905b815481526020019060010190808311610f4c575b5050505050905090565b815481835581811115610f9157818360005260206000209182019101610f909190610fee565b5b505050565b608060405190810160405280600073ffffffffffffffffffffffffffffffffffffffff168152602001600073ffffffffffffffffffffffffffffffffffffffff16815260200160008152602001600060ff1681525090565b61101091905b8082111561100c576000816000905550600101610ff4565b5090565b905600a165627a7a72305820ac8a3d0c834a858403e7a3745dddaaa180bd0651748d8dd7f44a8e06bd409f460029",
  "source": "pragma solidity ^0.4.24;\n\ncontract MultiSigWallet {\n\n    address private _owner;\n    mapping(address => uint8) private _owners;\n\n    uint constant MIN_SIGNATURES = 2;\n    uint private _transactionIdx;\n\n    struct Transaction {\n        address from;\n        address to;\n        uint amount;\n        uint8 signatureCount;\n        mapping (address => uint8) signatures;\n    }\n\n    mapping (uint => Transaction) private _transactions;\n    uint[] private _pendingTransactions;\n\n    modifier isOwner() {\n        require(msg.sender == _owner);\n        _;\n    }\n\n    modifier validOwner() {\n        require(msg.sender == _owner || _owners[msg.sender] == 1);\n        _;\n    }\n\n    event DepositFunds(address from, uint amount);\n    event TransactionCreated(address from, address to, uint amount, uint transactionId);\n    event TransactionCompleted(address from, address to, uint amount, uint transactionId);\n    event TransactionSigned(address by, uint transactionId);\n\n    constructor()\n        public {\n        _owner = msg.sender;\n    }\n\n    function addOwner(address owner)\n        public \n        isOwner{\n        _owners[owner] = 1;\n    }\n\n    function removeOwner(address owner)\n        public \n        isOwner {\n        _owners[owner] = 0;\n    }\n\n    function depositFund()\n        public\n        payable {\n        emit DepositFunds(msg.sender, msg.value);\n    }\n\n    function withdraw(uint amount)\n        public {\n        transferTo(msg.sender, amount);\n    }\n\n    function transferTo(address to, uint amount)\n        public \n        validOwner {\n        require(address(this).balance >= amount);\n        uint transactionId = _transactionIdx++;\n\n        Transaction memory transaction;\n        transaction.from = msg.sender;\n        transaction.to = to;\n        transaction.amount = amount;\n        transaction.signatureCount = 0;\n\n        _transactions[transactionId] = transaction;\n        _pendingTransactions.push(transactionId);\n\n        emit TransactionCreated(msg.sender, to, amount, transactionId);\n    }\n\n    function getPendingTransactions()\n        public\n        view\n        validOwner\n        returns (uint[]) {\n        return _pendingTransactions;\n    }\n\n    function signTransaction(uint transactionId)\n      public \n      validOwner{\n\n        Transaction storage transaction = _transactions[transactionId];\n\n        // Transaction must exist\n        require(0x0 != transaction.from);\n        // Creator cannot sign the transaction\n        require(msg.sender != transaction.from);\n        // Cannot sign a transaction more than once\n        require(transaction.signatures[msg.sender] != 1);\n\n        transaction.signatures[msg.sender] = 1;\n        transaction.signatureCount++;\n\n        emit TransactionSigned(msg.sender, transactionId);\n\n        if (transaction.signatureCount >= MIN_SIGNATURES) {\n            require(address(this).balance >= transaction.amount);\n            transaction.to.transfer(transaction.amount);\n            emit TransactionCompleted(transaction.from, transaction.to, transaction.amount, transactionId);\n            deleteTransaction(transactionId);\n        }\n    }\n\n    function deleteTransaction(uint transactionId)\n      public \n      validOwner {\n        uint8 replace = 0;\n        for(uint i = 0; i < _pendingTransactions.length; i++) {\n            if (1 == replace) {\n                _pendingTransactions[i-1] = _pendingTransactions[i];\n            } else if (transactionId == _pendingTransactions[i]) {\n                replace = 1;\n            }\n        }\n        delete _pendingTransactions[_pendingTransactions.length - 1];\n        _pendingTransactions.length--;\n        delete _transactions[transactionId];\n    }\n\n    function walletBalance()\n      public\n      view      \n      returns (uint) {\n        return address(this).balance;\n    }\n\n}",
  "sourcePath": "/home/sahil/Documents/AdvanceJava/TrialProject/Bank/contracts/Bank.sol",
  "compiler": {
    "name": "solc",
    "version": "0.4.24+commit.e67f0147.Emscripten.clang"
  },
  "schemaVersion": "2.0.1",
  "updatedAt": "2018-09-27T23:06:29.255Z"
}